{
  "contractName": "Airport",
  "abi": [
    {
      "inputs": [],
      "stateMutability": "nonpayable",
      "type": "constructor"
    },
    {
      "anonymous": false,
      "inputs": [
        {
          "indexed": true,
          "internalType": "address",
          "name": "owner",
          "type": "address"
        },
        {
          "indexed": true,
          "internalType": "address",
          "name": "approved",
          "type": "address"
        },
        {
          "indexed": true,
          "internalType": "uint256",
          "name": "tokenId",
          "type": "uint256"
        }
      ],
      "name": "Approval",
      "type": "event"
    },
    {
      "anonymous": false,
      "inputs": [
        {
          "indexed": true,
          "internalType": "address",
          "name": "owner",
          "type": "address"
        },
        {
          "indexed": true,
          "internalType": "address",
          "name": "operator",
          "type": "address"
        },
        {
          "indexed": false,
          "internalType": "bool",
          "name": "approved",
          "type": "bool"
        }
      ],
      "name": "ApprovalForAll",
      "type": "event"
    },
    {
      "anonymous": false,
      "inputs": [
        {
          "indexed": true,
          "internalType": "address",
          "name": "from",
          "type": "address"
        },
        {
          "indexed": true,
          "internalType": "address",
          "name": "to",
          "type": "address"
        },
        {
          "indexed": true,
          "internalType": "uint256",
          "name": "tokenId",
          "type": "uint256"
        }
      ],
      "name": "Transfer",
      "type": "event"
    },
    {
      "inputs": [
        {
          "internalType": "address",
          "name": "to",
          "type": "address"
        },
        {
          "internalType": "uint256",
          "name": "tokenId",
          "type": "uint256"
        }
      ],
      "name": "approve",
      "outputs": [],
      "stateMutability": "nonpayable",
      "type": "function"
    },
    {
      "inputs": [
        {
          "internalType": "address",
          "name": "owner",
          "type": "address"
        }
      ],
      "name": "balanceOf",
      "outputs": [
        {
          "internalType": "uint256",
          "name": "",
          "type": "uint256"
        }
      ],
      "stateMutability": "view",
      "type": "function",
      "constant": true
    },
    {
      "inputs": [
        {
          "internalType": "uint256",
          "name": "tokenId",
          "type": "uint256"
        }
      ],
      "name": "getApproved",
      "outputs": [
        {
          "internalType": "address",
          "name": "",
          "type": "address"
        }
      ],
      "stateMutability": "view",
      "type": "function",
      "constant": true
    },
    {
      "inputs": [
        {
          "internalType": "uint256",
          "name": "",
          "type": "uint256"
        }
      ],
      "name": "images",
      "outputs": [
        {
          "internalType": "string",
          "name": "",
          "type": "string"
        }
      ],
      "stateMutability": "view",
      "type": "function",
      "constant": true
    },
    {
      "inputs": [
        {
          "internalType": "address",
          "name": "owner",
          "type": "address"
        },
        {
          "internalType": "address",
          "name": "operator",
          "type": "address"
        }
      ],
      "name": "isApprovedForAll",
      "outputs": [
        {
          "internalType": "bool",
          "name": "",
          "type": "bool"
        }
      ],
      "stateMutability": "view",
      "type": "function",
      "constant": true
    },
    {
      "inputs": [],
      "name": "name",
      "outputs": [
        {
          "internalType": "string",
          "name": "",
          "type": "string"
        }
      ],
      "stateMutability": "view",
      "type": "function",
      "constant": true
    },
    {
      "inputs": [
        {
          "internalType": "uint256",
          "name": "tokenId",
          "type": "uint256"
        }
      ],
      "name": "ownerOf",
      "outputs": [
        {
          "internalType": "address",
          "name": "",
          "type": "address"
        }
      ],
      "stateMutability": "view",
      "type": "function",
      "constant": true
    },
    {
      "inputs": [
        {
          "internalType": "address",
          "name": "from",
          "type": "address"
        },
        {
          "internalType": "address",
          "name": "to",
          "type": "address"
        },
        {
          "internalType": "uint256",
          "name": "tokenId",
          "type": "uint256"
        }
      ],
      "name": "safeTransferFrom",
      "outputs": [],
      "stateMutability": "nonpayable",
      "type": "function"
    },
    {
      "inputs": [
        {
          "internalType": "address",
          "name": "from",
          "type": "address"
        },
        {
          "internalType": "address",
          "name": "to",
          "type": "address"
        },
        {
          "internalType": "uint256",
          "name": "tokenId",
          "type": "uint256"
        },
        {
          "internalType": "bytes",
          "name": "_data",
          "type": "bytes"
        }
      ],
      "name": "safeTransferFrom",
      "outputs": [],
      "stateMutability": "nonpayable",
      "type": "function"
    },
    {
      "inputs": [
        {
          "internalType": "address",
          "name": "operator",
          "type": "address"
        },
        {
          "internalType": "bool",
          "name": "approved",
          "type": "bool"
        }
      ],
      "name": "setApprovalForAll",
      "outputs": [],
      "stateMutability": "nonpayable",
      "type": "function"
    },
    {
      "inputs": [],
      "name": "symbol",
      "outputs": [
        {
          "internalType": "string",
          "name": "",
          "type": "string"
        }
      ],
      "stateMutability": "view",
      "type": "function",
      "constant": true
    },
    {
      "inputs": [
        {
          "internalType": "uint256",
          "name": "index",
          "type": "uint256"
        }
      ],
      "name": "tokenByIndex",
      "outputs": [
        {
          "internalType": "uint256",
          "name": "",
          "type": "uint256"
        }
      ],
      "stateMutability": "view",
      "type": "function",
      "constant": true
    },
    {
      "inputs": [
        {
          "internalType": "address",
          "name": "owner",
          "type": "address"
        },
        {
          "internalType": "uint256",
          "name": "index",
          "type": "uint256"
        }
      ],
      "name": "tokenOfOwnerByIndex",
      "outputs": [
        {
          "internalType": "uint256",
          "name": "",
          "type": "uint256"
        }
      ],
      "stateMutability": "view",
      "type": "function",
      "constant": true
    },
    {
      "inputs": [
        {
          "internalType": "uint256",
          "name": "tokenId",
          "type": "uint256"
        }
      ],
      "name": "tokenURI",
      "outputs": [
        {
          "internalType": "string",
          "name": "",
          "type": "string"
        }
      ],
      "stateMutability": "view",
      "type": "function",
      "constant": true
    },
    {
      "inputs": [],
      "name": "totalSupply",
      "outputs": [
        {
          "internalType": "uint256",
          "name": "",
          "type": "uint256"
        }
      ],
      "stateMutability": "view",
      "type": "function",
      "constant": true
    },
    {
      "inputs": [
        {
          "internalType": "address",
          "name": "from",
          "type": "address"
        },
        {
          "internalType": "address",
          "name": "to",
          "type": "address"
        },
        {
          "internalType": "uint256",
          "name": "tokenId",
          "type": "uint256"
        }
      ],
      "name": "transferFrom",
      "outputs": [],
      "stateMutability": "nonpayable",
      "type": "function"
    },
    {
      "inputs": [
        {
          "internalType": "bytes4",
          "name": "interfaceId",
          "type": "bytes4"
        }
      ],
      "name": "supportsInterface",
      "outputs": [
        {
          "internalType": "bool",
          "name": "",
          "type": "bool"
        }
      ],
      "stateMutability": "view",
      "type": "function",
      "constant": true
    },
    {
      "inputs": [
        {
          "internalType": "string",
          "name": "_image",
          "type": "string"
        }
      ],
      "name": "mint",
      "outputs": [],
      "stateMutability": "nonpayable",
      "type": "function"
    }
  ],
  "bytecode": "0x60806040523480156200001157600080fd5b506040518060400160405280601481526020017f4d79416972706f7274436f6c6c65637469626c650000000000000000000000008152506040518060400160405280600381526020017f4d41430000000000000000000000000000000000000000000000000000000000815250816000908051906020019062000096929190620000b8565b508060019080519060200190620000af929190620000b8565b505050620001cd565b828054620000c69062000197565b90600052602060002090601f016020900481019282620000ea576000855562000136565b82601f106200010557805160ff191683800117855562000136565b8280016001018555821562000136579182015b828111156200013557825182559160200191906001019062000118565b5b50905062000145919062000149565b5090565b5b80821115620001645760008160009055506001016200014a565b5090565b7f4e487b7100000000000000000000000000000000000000000000000000000000600052602260045260246000fd5b60006002820490506001821680620001b057607f821691505b60208210811415620001c757620001c662000168565b5b50919050565b61325580620001dd6000396000f3fe608060405234801561001057600080fd5b50600436106101165760003560e01c80636352211e116100a2578063a22cb46511610071578063a22cb46514610319578063b88d4fde14610335578063c87b56dd14610351578063d85d3d2714610381578063e985e9c51461039d57610116565b80636352211e1461026b57806370a082311461029b57806384856482146102cb57806395d89b41146102fb57610116565b806318160ddd116100e957806318160ddd146101b557806323b872dd146101d35780632f745c59146101ef57806342842e0e1461021f5780634f6ccce71461023b57610116565b806301ffc9a71461011b57806306fdde031461014b578063081812fc14610169578063095ea7b314610199575b600080fd5b61013560048036038101906101309190611f18565b6103cd565b6040516101429190611f60565b60405180910390f35b6101536103df565b6040516101609190612014565b60405180910390f35b610183600480360381019061017e919061206c565b610471565b60405161019091906120da565b60405180910390f35b6101b360048036038101906101ae9190612121565b6104f6565b005b6101bd61060e565b6040516101ca9190612170565b60405180910390f35b6101ed60048036038101906101e8919061218b565b61061b565b005b61020960048036038101906102049190612121565b61067b565b6040516102169190612170565b60405180910390f35b6102396004803603810190610234919061218b565b610720565b005b6102556004803603810190610250919061206c565b610740565b6040516102629190612170565b60405180910390f35b6102856004803603810190610280919061206c565b6107b1565b60405161029291906120da565b60405180910390f35b6102b560048036038101906102b091906121de565b610863565b6040516102c29190612170565b60405180910390f35b6102e560048036038101906102e0919061206c565b61091b565b6040516102f29190612014565b60405180910390f35b6103036109c7565b6040516103109190612014565b60405180910390f35b610333600480360381019061032e9190612237565b610a59565b005b61034f600480360381019061034a91906123ac565b610a6f565b005b61036b6004803603810190610366919061206c565b610ad1565b6040516103789190612014565b60405180910390f35b61039b600480360381019061039691906124d0565b610b78565b005b6103b760048036038101906103b29190612519565b610c6f565b6040516103c49190611f60565b60405180910390f35b60006103d882610d03565b9050919050565b6060600080546103ee90612588565b80601f016020809104026020016040519081016040528092919081815260200182805461041a90612588565b80156104675780601f1061043c57610100808354040283529160200191610467565b820191906000526020600020905b81548152906001019060200180831161044a57829003601f168201915b5050505050905090565b600061047c82610d7d565b6104bb576040517f08c379a00000000000000000000000000000000000000000000000000000000081526004016104b29061262c565b60405180910390fd5b6004600083815260200190815260200160002060009054906101000a900473ffffffffffffffffffffffffffffffffffffffff169050919050565b6000610501826107b1565b90508073ffffffffffffffffffffffffffffffffffffffff168373ffffffffffffffffffffffffffffffffffffffff161415610572576040517f08c379a0000000000000000000000000000000000000000000000000000000008152600401610569906126be565b60405180910390fd5b8073ffffffffffffffffffffffffffffffffffffffff16610591610de9565b73ffffffffffffffffffffffffffffffffffffffff1614806105c057506105bf816105ba610de9565b610c6f565b5b6105ff576040517f08c379a00000000000000000000000000000000000000000000000000000000081526004016105f690612750565b60405180910390fd5b6106098383610df1565b505050565b6000600880549050905090565b61062c610626610de9565b82610eaa565b61066b576040517f08c379a0000000000000000000000000000000000000000000000000000000008152600401610662906127e2565b60405180910390fd5b610676838383610f88565b505050565b600061068683610863565b82106106c7576040517f08c379a00000000000000000000000000000000000000000000000000000000081526004016106be90612874565b60405180910390fd5b600660008473ffffffffffffffffffffffffffffffffffffffff1673ffffffffffffffffffffffffffffffffffffffff168152602001908152602001600020600083815260200190815260200160002054905092915050565b61073b83838360405180602001604052806000815250610a6f565b505050565b600061074a61060e565b821061078b576040517f08c379a000000000000000000000000000000000000000000000000000000000815260040161078290612906565b60405180910390fd5b6008828154811061079f5761079e612926565b5b90600052602060002001549050919050565b6000806002600084815260200190815260200160002060009054906101000a900473ffffffffffffffffffffffffffffffffffffffff169050600073ffffffffffffffffffffffffffffffffffffffff168173ffffffffffffffffffffffffffffffffffffffff16141561085a576040517f08c379a0000000000000000000000000000000000000000000000000000000008152600401610851906129c7565b60405180910390fd5b80915050919050565b60008073ffffffffffffffffffffffffffffffffffffffff168273ffffffffffffffffffffffffffffffffffffffff1614156108d4576040517f08c379a00000000000000000000000000000000000000000000000000000000081526004016108cb90612a59565b60405180910390fd5b600360008373ffffffffffffffffffffffffffffffffffffffff1673ffffffffffffffffffffffffffffffffffffffff168152602001908152602001600020549050919050565b600a818154811061092b57600080fd5b90600052602060002001600091509050805461094690612588565b80601f016020809104026020016040519081016040528092919081815260200182805461097290612588565b80156109bf5780601f10610994576101008083540402835291602001916109bf565b820191906000526020600020905b8154815290600101906020018083116109a257829003601f168201915b505050505081565b6060600180546109d690612588565b80601f0160208091040260200160405190810160405280929190818152602001828054610a0290612588565b8015610a4f5780601f10610a2457610100808354040283529160200191610a4f565b820191906000526020600020905b815481529060010190602001808311610a3257829003601f168201915b5050505050905090565b610a6b610a64610de9565b83836111e4565b5050565b610a80610a7a610de9565b83610eaa565b610abf576040517f08c379a0000000000000000000000000000000000000000000000000000000008152600401610ab6906127e2565b60405180910390fd5b610acb84848484611351565b50505050565b6060610adc82610d7d565b610b1b576040517f08c379a0000000000000000000000000000000000000000000000000000000008152600401610b1290612aeb565b60405180910390fd5b6000610b256113ad565b90506000815111610b455760405180602001604052806000815250610b70565b80610b4f846113c4565b604051602001610b60929190612b47565b6040516020818303038152906040525b915050919050565b600b81604051610b889190612b6b565b908152602001604051809103902060009054906101000a900460ff1615610be4576040517f08c379a0000000000000000000000000000000000000000000000000000000008152600401610bdb90612bce565b60405180910390fd5b600a81908060018154018082558091505060019003906000526020600020016000909190919091509080519060200190610c1f929190611e09565b506000600a805490509050610c343382611525565b6001600b83604051610c469190612b6b565b908152602001604051809103902060006101000a81548160ff0219169083151502179055505050565b6000600560008473ffffffffffffffffffffffffffffffffffffffff1673ffffffffffffffffffffffffffffffffffffffff16815260200190815260200160002060008373ffffffffffffffffffffffffffffffffffffffff1673ffffffffffffffffffffffffffffffffffffffff16815260200190815260200160002060009054906101000a900460ff16905092915050565b60007f780e9d63000000000000000000000000000000000000000000000000000000007bffffffffffffffffffffffffffffffffffffffffffffffffffffffff1916827bffffffffffffffffffffffffffffffffffffffffffffffffffffffff19161480610d765750610d75826116f3565b5b9050919050565b60008073ffffffffffffffffffffffffffffffffffffffff166002600084815260200190815260200160002060009054906101000a900473ffffffffffffffffffffffffffffffffffffffff1673ffffffffffffffffffffffffffffffffffffffff1614159050919050565b600033905090565b816004600083815260200190815260200160002060006101000a81548173ffffffffffffffffffffffffffffffffffffffff021916908373ffffffffffffffffffffffffffffffffffffffff160217905550808273ffffffffffffffffffffffffffffffffffffffff16610e64836107b1565b73ffffffffffffffffffffffffffffffffffffffff167f8c5be1e5ebec7d5bd14f71427d1e84f3dd0314c0f7b2291e5b200ac8c7c3b92560405160405180910390a45050565b6000610eb582610d7d565b610ef4576040517f08c379a0000000000000000000000000000000000000000000000000000000008152600401610eeb90612c60565b60405180910390fd5b6000610eff836107b1565b90508073ffffffffffffffffffffffffffffffffffffffff168473ffffffffffffffffffffffffffffffffffffffff161480610f6e57508373ffffffffffffffffffffffffffffffffffffffff16610f5684610471565b73ffffffffffffffffffffffffffffffffffffffff16145b80610f7f5750610f7e8185610c6f565b5b91505092915050565b8273ffffffffffffffffffffffffffffffffffffffff16610fa8826107b1565b73ffffffffffffffffffffffffffffffffffffffff1614610ffe576040517f08c379a0000000000000000000000000000000000000000000000000000000008152600401610ff590612cf2565b60405180910390fd5b600073ffffffffffffffffffffffffffffffffffffffff168273ffffffffffffffffffffffffffffffffffffffff16141561106e576040517f08c379a000000000000000000000000000000000000000000000000000000000815260040161106590612d84565b60405180910390fd5b6110798383836117d5565b611084600082610df1565b6001600360008573ffffffffffffffffffffffffffffffffffffffff1673ffffffffffffffffffffffffffffffffffffffff16815260200190815260200160002060008282546110d49190612dd3565b925050819055506001600360008473ffffffffffffffffffffffffffffffffffffffff1673ffffffffffffffffffffffffffffffffffffffff168152602001908152602001600020600082825461112b9190612e07565b92505081905550816002600083815260200190815260200160002060006101000a81548173ffffffffffffffffffffffffffffffffffffffff021916908373ffffffffffffffffffffffffffffffffffffffff160217905550808273ffffffffffffffffffffffffffffffffffffffff168473ffffffffffffffffffffffffffffffffffffffff167fddf252ad1be2c89b69c2b068fc378daa952ba7f163c4a11628f55a4df523b3ef60405160405180910390a4505050565b8173ffffffffffffffffffffffffffffffffffffffff168373ffffffffffffffffffffffffffffffffffffffff161415611253576040517f08c379a000000000000000000000000000000000000000000000000000000000815260040161124a90612ea9565b60405180910390fd5b80600560008573ffffffffffffffffffffffffffffffffffffffff1673ffffffffffffffffffffffffffffffffffffffff16815260200190815260200160002060008473ffffffffffffffffffffffffffffffffffffffff1673ffffffffffffffffffffffffffffffffffffffff16815260200190815260200160002060006101000a81548160ff0219169083151502179055508173ffffffffffffffffffffffffffffffffffffffff168373ffffffffffffffffffffffffffffffffffffffff167f17307eab39ab6107e8899845ad3d59bd9653f200f220920489ca2b5937696c31836040516113449190611f60565b60405180910390a3505050565b61135c848484610f88565b611368848484846117e5565b6113a7576040517f08c379a000000000000000000000000000000000000000000000000000000000815260040161139e90612f3b565b60405180910390fd5b50505050565b606060405180602001604052806000815250905090565b6060600082141561140c576040518060400160405280600181526020017f30000000000000000000000000000000000000000000000000000000000000008152509050611520565b600082905060005b6000821461143e57808061142790612f5b565b915050600a826114379190612fd3565b9150611414565b60008167ffffffffffffffff81111561145a57611459612281565b5b6040519080825280601f01601f19166020018201604052801561148c5781602001600182028036833780820191505090505b5090505b60008514611519576001826114a59190612dd3565b9150600a856114b49190613004565b60306114c09190612e07565b60f81b8183815181106114d6576114d5612926565b5b60200101907effffffffffffffffffffffffffffffffffffffffffffffffffffffffffffff1916908160001a905350600a856115129190612fd3565b9450611490565b8093505050505b919050565b600073ffffffffffffffffffffffffffffffffffffffff168273ffffffffffffffffffffffffffffffffffffffff161415611595576040517f08c379a000000000000000000000000000000000000000000000000000000000815260040161158c90613081565b60405180910390fd5b61159e81610d7d565b156115de576040517f08c379a00000000000000000000000000000000000000000000000000000000081526004016115d5906130ed565b60405180910390fd5b6115ea600083836117d5565b6001600360008473ffffffffffffffffffffffffffffffffffffffff1673ffffffffffffffffffffffffffffffffffffffff168152602001908152602001600020600082825461163a9190612e07565b92505081905550816002600083815260200190815260200160002060006101000a81548173ffffffffffffffffffffffffffffffffffffffff021916908373ffffffffffffffffffffffffffffffffffffffff160217905550808273ffffffffffffffffffffffffffffffffffffffff16600073ffffffffffffffffffffffffffffffffffffffff167fddf252ad1be2c89b69c2b068fc378daa952ba7f163c4a11628f55a4df523b3ef60405160405180910390a45050565b60007f80ac58cd000000000000000000000000000000000000000000000000000000007bffffffffffffffffffffffffffffffffffffffffffffffffffffffff1916827bffffffffffffffffffffffffffffffffffffffffffffffffffffffff191614806117be57507f5b5e139f000000000000000000000000000000000000000000000000000000007bffffffffffffffffffffffffffffffffffffffffffffffffffffffff1916827bffffffffffffffffffffffffffffffffffffffffffffffffffffffff1916145b806117ce57506117cd8261196d565b5b9050919050565b6117e08383836119d7565b505050565b60006118068473ffffffffffffffffffffffffffffffffffffffff16611aeb565b15611960578373ffffffffffffffffffffffffffffffffffffffff1663150b7a0261182f610de9565b8786866040518563ffffffff1660e01b81526004016118519493929190613162565b6020604051808303816000875af192505050801561188d57506040513d601f19601f8201168201806040525081019061188a91906131c3565b60015b611910573d80600081146118bd576040519150601f19603f3d011682016040523d82523d6000602084013e6118c2565b606091505b50600081511415611908576040517f08c379a00000000000000000000000000000000000000000000000000000000081526004016118ff90612f3b565b60405180910390fd5b805181602001fd5b63150b7a0260e01b7bffffffffffffffffffffffffffffffffffffffffffffffffffffffff1916817bffffffffffffffffffffffffffffffffffffffffffffffffffffffff191614915050611965565b600190505b949350505050565b60007f01ffc9a7000000000000000000000000000000000000000000000000000000007bffffffffffffffffffffffffffffffffffffffffffffffffffffffff1916827bffffffffffffffffffffffffffffffffffffffffffffffffffffffff1916149050919050565b6119e2838383611afe565b600073ffffffffffffffffffffffffffffffffffffffff168373ffffffffffffffffffffffffffffffffffffffff161415611a2557611a2081611b03565b611a64565b8173ffffffffffffffffffffffffffffffffffffffff168373ffffffffffffffffffffffffffffffffffffffff1614611a6357611a628382611b4c565b5b5b600073ffffffffffffffffffffffffffffffffffffffff168273ffffffffffffffffffffffffffffffffffffffff161415611aa757611aa281611cb9565b611ae6565b8273ffffffffffffffffffffffffffffffffffffffff168273ffffffffffffffffffffffffffffffffffffffff1614611ae557611ae48282611d8a565b5b5b505050565b600080823b905060008111915050919050565b505050565b6008805490506009600083815260200190815260200160002081905550600881908060018154018082558091505060019003906000526020600020016000909190919091505550565b60006001611b5984610863565b611b639190612dd3565b9050600060076000848152602001908152602001600020549050818114611c48576000600660008673ffffffffffffffffffffffffffffffffffffffff1673ffffffffffffffffffffffffffffffffffffffff168152602001908152602001600020600084815260200190815260200160002054905080600660008773ffffffffffffffffffffffffffffffffffffffff1673ffffffffffffffffffffffffffffffffffffffff168152602001908152602001600020600084815260200190815260200160002081905550816007600083815260200190815260200160002081905550505b6007600084815260200190815260200160002060009055600660008573ffffffffffffffffffffffffffffffffffffffff1673ffffffffffffffffffffffffffffffffffffffff16815260200190815260200160002060008381526020019081526020016000206000905550505050565b60006001600880549050611ccd9190612dd3565b9050600060096000848152602001908152602001600020549050600060088381548110611cfd57611cfc612926565b5b906000526020600020015490508060088381548110611d1f57611d1e612926565b5b906000526020600020018190555081600960008381526020019081526020016000208190555060096000858152602001908152602001600020600090556008805480611d6e57611d6d6131f0565b5b6001900381819060005260206000200160009055905550505050565b6000611d9583610863565b905081600660008573ffffffffffffffffffffffffffffffffffffffff1673ffffffffffffffffffffffffffffffffffffffff168152602001908152602001600020600083815260200190815260200160002081905550806007600084815260200190815260200160002081905550505050565b828054611e1590612588565b90600052602060002090601f016020900481019282611e375760008555611e7e565b82601f10611e5057805160ff1916838001178555611e7e565b82800160010185558215611e7e579182015b82811115611e7d578251825591602001919060010190611e62565b5b509050611e8b9190611e8f565b5090565b5b80821115611ea8576000816000905550600101611e90565b5090565b6000604051905090565b600080fd5b600080fd5b60007fffffffff0000000000000000000000000000000000000000000000000000000082169050919050565b611ef581611ec0565b8114611f0057600080fd5b50565b600081359050611f1281611eec565b92915050565b600060208284031215611f2e57611f2d611eb6565b5b6000611f3c84828501611f03565b91505092915050565b60008115159050919050565b611f5a81611f45565b82525050565b6000602082019050611f756000830184611f51565b92915050565b600081519050919050565b600082825260208201905092915050565b60005b83811015611fb5578082015181840152602081019050611f9a565b83811115611fc4576000848401525b50505050565b6000601f19601f8301169050919050565b6000611fe682611f7b565b611ff08185611f86565b9350612000818560208601611f97565b61200981611fca565b840191505092915050565b6000602082019050818103600083015261202e8184611fdb565b905092915050565b6000819050919050565b61204981612036565b811461205457600080fd5b50565b60008135905061206681612040565b92915050565b60006020828403121561208257612081611eb6565b5b600061209084828501612057565b91505092915050565b600073ffffffffffffffffffffffffffffffffffffffff82169050919050565b60006120c482612099565b9050919050565b6120d4816120b9565b82525050565b60006020820190506120ef60008301846120cb565b92915050565b6120fe816120b9565b811461210957600080fd5b50565b60008135905061211b816120f5565b92915050565b6000806040838503121561213857612137611eb6565b5b60006121468582860161210c565b925050602061215785828601612057565b9150509250929050565b61216a81612036565b82525050565b60006020820190506121856000830184612161565b92915050565b6000806000606084860312156121a4576121a3611eb6565b5b60006121b28682870161210c565b93505060206121c38682870161210c565b92505060406121d486828701612057565b9150509250925092565b6000602082840312156121f4576121f3611eb6565b5b60006122028482850161210c565b91505092915050565b61221481611f45565b811461221f57600080fd5b50565b6000813590506122318161220b565b92915050565b6000806040838503121561224e5761224d611eb6565b5b600061225c8582860161210c565b925050602061226d85828601612222565b9150509250929050565b600080fd5b600080fd5b7f4e487b7100000000000000000000000000000000000000000000000000000000600052604160045260246000fd5b6122b982611fca565b810181811067ffffffffffffffff821117156122d8576122d7612281565b5b80604052505050565b60006122eb611eac565b90506122f782826122b0565b919050565b600067ffffffffffffffff82111561231757612316612281565b5b61232082611fca565b9050602081019050919050565b82818337600083830152505050565b600061234f61234a846122fc565b6122e1565b90508281526020810184848401111561236b5761236a61227c565b5b61237684828561232d565b509392505050565b600082601f83011261239357612392612277565b5b81356123a384826020860161233c565b91505092915050565b600080600080608085870312156123c6576123c5611eb6565b5b60006123d48782880161210c565b94505060206123e58782880161210c565b93505060406123f687828801612057565b925050606085013567ffffffffffffffff81111561241757612416611ebb565b5b6124238782880161237e565b91505092959194509250565b600067ffffffffffffffff82111561244a57612449612281565b5b61245382611fca565b9050602081019050919050565b600061247361246e8461242f565b6122e1565b90508281526020810184848401111561248f5761248e61227c565b5b61249a84828561232d565b509392505050565b600082601f8301126124b7576124b6612277565b5b81356124c7848260208601612460565b91505092915050565b6000602082840312156124e6576124e5611eb6565b5b600082013567ffffffffffffffff81111561250457612503611ebb565b5b612510848285016124a2565b91505092915050565b600080604083850312156125305761252f611eb6565b5b600061253e8582860161210c565b925050602061254f8582860161210c565b9150509250929050565b7f4e487b7100000000000000000000000000000000000000000000000000000000600052602260045260246000fd5b600060028204905060018216806125a057607f821691505b602082108114156125b4576125b3612559565b5b50919050565b7f4552433732313a20617070726f76656420717565727920666f72206e6f6e657860008201527f697374656e7420746f6b656e0000000000000000000000000000000000000000602082015250565b6000612616602c83611f86565b9150612621826125ba565b604082019050919050565b6000602082019050818103600083015261264581612609565b9050919050565b7f4552433732313a20617070726f76616c20746f2063757272656e74206f776e6560008201527f7200000000000000000000000000000000000000000000000000000000000000602082015250565b60006126a8602183611f86565b91506126b38261264c565b604082019050919050565b600060208201905081810360008301526126d78161269b565b9050919050565b7f4552433732313a20617070726f76652063616c6c6572206973206e6f74206f7760008201527f6e6572206e6f7220617070726f76656420666f7220616c6c0000000000000000602082015250565b600061273a603883611f86565b9150612745826126de565b604082019050919050565b600060208201905081810360008301526127698161272d565b9050919050565b7f4552433732313a207472616e736665722063616c6c6572206973206e6f74206f60008201527f776e6572206e6f7220617070726f766564000000000000000000000000000000602082015250565b60006127cc603183611f86565b91506127d782612770565b604082019050919050565b600060208201905081810360008301526127fb816127bf565b9050919050565b7f455243373231456e756d657261626c653a206f776e657220696e646578206f7560008201527f74206f6620626f756e6473000000000000000000000000000000000000000000602082015250565b600061285e602b83611f86565b915061286982612802565b604082019050919050565b6000602082019050818103600083015261288d81612851565b9050919050565b7f455243373231456e756d657261626c653a20676c6f62616c20696e646578206f60008201527f7574206f6620626f756e64730000000000000000000000000000000000000000602082015250565b60006128f0602c83611f86565b91506128fb82612894565b604082019050919050565b6000602082019050818103600083015261291f816128e3565b9050919050565b7f4e487b7100000000000000000000000000000000000000000000000000000000600052603260045260246000fd5b7f4552433732313a206f776e657220717565727920666f72206e6f6e657869737460008201527f656e7420746f6b656e0000000000000000000000000000000000000000000000602082015250565b60006129b1602983611f86565b91506129bc82612955565b604082019050919050565b600060208201905081810360008301526129e0816129a4565b9050919050565b7f4552433732313a2062616c616e636520717565727920666f7220746865207a6560008201527f726f206164647265737300000000000000000000000000000000000000000000602082015250565b6000612a43602a83611f86565b9150612a4e826129e7565b604082019050919050565b60006020820190508181036000830152612a7281612a36565b9050919050565b7f4552433732314d657461646174613a2055524920717565727920666f72206e6f60008201527f6e6578697374656e7420746f6b656e0000000000000000000000000000000000602082015250565b6000612ad5602f83611f86565b9150612ae082612a79565b604082019050919050565b60006020820190508181036000830152612b0481612ac8565b9050919050565b600081905092915050565b6000612b2182611f7b565b612b2b8185612b0b565b9350612b3b818560208601611f97565b80840191505092915050565b6000612b538285612b16565b9150612b5f8284612b16565b91508190509392505050565b6000612b778284612b16565b915081905092915050565b7f696d61676520616c726561647920696e20757365210000000000000000000000600082015250565b6000612bb8601583611f86565b9150612bc382612b82565b602082019050919050565b60006020820190508181036000830152612be781612bab565b9050919050565b7f4552433732313a206f70657261746f7220717565727920666f72206e6f6e657860008201527f697374656e7420746f6b656e0000000000000000000000000000000000000000602082015250565b6000612c4a602c83611f86565b9150612c5582612bee565b604082019050919050565b60006020820190508181036000830152612c7981612c3d565b9050919050565b7f4552433732313a207472616e73666572206f6620746f6b656e2074686174206960008201527f73206e6f74206f776e0000000000000000000000000000000000000000000000602082015250565b6000612cdc602983611f86565b9150612ce782612c80565b604082019050919050565b60006020820190508181036000830152612d0b81612ccf565b9050919050565b7f4552433732313a207472616e7366657220746f20746865207a65726f2061646460008201527f7265737300000000000000000000000000000000000000000000000000000000602082015250565b6000612d6e602483611f86565b9150612d7982612d12565b604082019050919050565b60006020820190508181036000830152612d9d81612d61565b9050919050565b7f4e487b7100000000000000000000000000000000000000000000000000000000600052601160045260246000fd5b6000612dde82612036565b9150612de983612036565b925082821015612dfc57612dfb612da4565b5b828203905092915050565b6000612e1282612036565b9150612e1d83612036565b9250827fffffffffffffffffffffffffffffffffffffffffffffffffffffffffffffffff03821115612e5257612e51612da4565b5b828201905092915050565b7f4552433732313a20617070726f766520746f2063616c6c657200000000000000600082015250565b6000612e93601983611f86565b9150612e9e82612e5d565b602082019050919050565b60006020820190508181036000830152612ec281612e86565b9050919050565b7f4552433732313a207472616e7366657220746f206e6f6e20455243373231526560008201527f63656976657220696d706c656d656e7465720000000000000000000000000000602082015250565b6000612f25603283611f86565b9150612f3082612ec9565b604082019050919050565b60006020820190508181036000830152612f5481612f18565b9050919050565b6000612f6682612036565b91507fffffffffffffffffffffffffffffffffffffffffffffffffffffffffffffffff821415612f9957612f98612da4565b5b600182019050919050565b7f4e487b7100000000000000000000000000000000000000000000000000000000600052601260045260246000fd5b6000612fde82612036565b9150612fe983612036565b925082612ff957612ff8612fa4565b5b828204905092915050565b600061300f82612036565b915061301a83612036565b92508261302a57613029612fa4565b5b828206905092915050565b7f4552433732313a206d696e7420746f20746865207a65726f2061646472657373600082015250565b600061306b602083611f86565b915061307682613035565b602082019050919050565b6000602082019050818103600083015261309a8161305e565b9050919050565b7f4552433732313a20746f6b656e20616c7265616479206d696e74656400000000600082015250565b60006130d7601c83611f86565b91506130e2826130a1565b602082019050919050565b60006020820190508181036000830152613106816130ca565b9050919050565b600081519050919050565b600082825260208201905092915050565b60006131348261310d565b61313e8185613118565b935061314e818560208601611f97565b61315781611fca565b840191505092915050565b600060808201905061317760008301876120cb565b61318460208301866120cb565b6131916040830185612161565b81810360608301526131a38184613129565b905095945050505050565b6000815190506131bd81611eec565b92915050565b6000602082840312156131d9576131d8611eb6565b5b60006131e7848285016131ae565b91505092915050565b7f4e487b7100000000000000000000000000000000000000000000000000000000600052603160045260246000fdfea2646970667358221220e231662bec200a18a2593674041735a2464e98119c302cb6dd84bfc9d7678d9864736f6c634300080b0033",
  "immutableReferences": {},
  "source": "//SPDX-License-Identifier: UNLICENSED\npragma solidity ^0.8.0;\n\nimport \"@openzeppelin/contracts/token/ERC721/ERC721.sol\";\nimport \"@openzeppelin/contracts/token/ERC721/extensions/ERC721Enumerable.sol\";\n\ncontract Airport is ERC721, ERC721Enumerable {\n    string[] public images;\n    mapping(string => bool) _imageExists;\n\n    constructor() ERC721(\"MyAirportCollectible\", \"MAC\") {}\n\n    function _beforeTokenTransfer(\n        address from,\n        address to,\n        uint256 tokenId\n    ) internal override(ERC721, ERC721Enumerable) {\n        super._beforeTokenTransfer(from, to, tokenId);\n    }\n\n    function supportsInterface(bytes4 interfaceId)\n        public\n        view\n        override(ERC721, ERC721Enumerable)\n        returns (bool)\n    {\n        return super.supportsInterface(interfaceId);\n    }\n\n    function mint(string memory _image) public {\n        // Change visibility to onlyOwner!\n        require(!_imageExists[_image], \"image already in use!\");\n        images.push(_image);\n        uint256 _id = images.length;\n        _mint(msg.sender, _id);\n        _imageExists[_image] = true;\n    }\n}\n",
  "sourcePath": "/Users/jordanrowley/Desktop/ERC721 Testing/NFT/src/contracts/Airport.sol",
  "compiler": {
    "name": "solc",
    "version": "0.8.11+commit.d7f03943.Emscripten.clang"
  },
  "schemaVersion": "3.4.4",
  "updatedAt": "2022-01-21T00:23:30.542Z",
  "networkType": "ethereum",
  "devdoc": {
    "kind": "dev",
    "methods": {
      "approve(address,uint256)": {
        "details": "See {IERC721-approve}."
      },
      "balanceOf(address)": {
        "details": "See {IERC721-balanceOf}."
      },
      "getApproved(uint256)": {
        "details": "See {IERC721-getApproved}."
      },
      "isApprovedForAll(address,address)": {
        "details": "See {IERC721-isApprovedForAll}."
      },
      "name()": {
        "details": "See {IERC721Metadata-name}."
      },
      "ownerOf(uint256)": {
        "details": "See {IERC721-ownerOf}."
      },
      "safeTransferFrom(address,address,uint256)": {
        "details": "See {IERC721-safeTransferFrom}."
      },
      "safeTransferFrom(address,address,uint256,bytes)": {
        "details": "See {IERC721-safeTransferFrom}."
      },
      "setApprovalForAll(address,bool)": {
        "details": "See {IERC721-setApprovalForAll}."
      },
      "symbol()": {
        "details": "See {IERC721Metadata-symbol}."
      },
      "tokenByIndex(uint256)": {
        "details": "See {IERC721Enumerable-tokenByIndex}."
      },
      "tokenOfOwnerByIndex(address,uint256)": {
        "details": "See {IERC721Enumerable-tokenOfOwnerByIndex}."
      },
      "tokenURI(uint256)": {
        "details": "See {IERC721Metadata-tokenURI}."
      },
      "totalSupply()": {
        "details": "See {IERC721Enumerable-totalSupply}."
      },
      "transferFrom(address,address,uint256)": {
        "details": "See {IERC721-transferFrom}."
      }
    },
    "version": 1
  },
  "userdoc": {
    "kind": "user",
    "methods": {},
    "version": 1
  }
}